:020000040800F2
:10000000880500209D0100084D18000865150008AE
:10001000C5170008D5020008DF1D00080000000019
:10002000000000000000000000000000511800085F
:10003000F1020008000000004F18000885180008B1
:10004000B7010008B7010008B7010008B7010008B0
:10005000B7010008B7010008B7010008B7010008A0
:10006000B7010008B7010008B7010008B701000890
:10007000B7010008B7010008B7010008B701000880
:10008000B7010008B7010008B7010008B701000870
:10009000B7010008B7010008B7010008B701000860
:1000A000B7010008B7010008B7010008B701000850
:1000B000B7010008B7010008B7010008B701000840
:1000C000B7010008B7010008B7010008B701000830
:1000D000B7010008B7010008B7010008B701000820
:1000E000B7010008B7010008B7010008B701000810
:1000F000B7010008B7010008B7010008B701000800
:10010000B7010008B7010008B7010008B7010008EF
:10011000B7010008B70100082D190008B701000851
:10012000B7010008B7010008B7010008B7010008CF
:10013000B7010008B7010008B7010008B7010008BF
:10014000B7010008B7010008B7010008B7010008AF
:10015000B7010008B7010008B7010008B70100089F
:10016000B7010008B7010008B7010008B70100088F
:10017000B7010008B7010008B7010008000000003F
:10018000B7010008B7010008DFF80CD000F090F8C4
:1001900000480047AD1F000888050020064880473A
:1001A00006480047FEE7FEE7FEE7FEE7FEE7FEE75C
:1001B000FEE7FEE7FEE7FEE71D19000889010008DB
:1001C0002DE9F05F0546002092469B46884606468C
:1001D000814640241BE0284641464746224600F01F
:1001E00057F853465A46C01A914110D31146184643
:1001F000224600F03EF82D1A67EB01084F462246D2
:100200000120002100F035F817EB00094E41201EB7
:10021000A4F10104DFDC484631462A464346BDE8E6
:10022000F09FD2B201E000F8012B491EFBD27047CB
:100230000022F6E710B513460A4604461946FFF7B2
:10024000F0FF204610BD30B50B46014600202022AD
:10025000012409E021FA02F59D4205D303FA02F5D3
:10026000491B04FA02F52844151EA2F10102F1DC33
:1002700030BD202A04DB203A00FA02F1002070474A
:100280009140C2F1200320FA03F3194390407047D4
:10029000202A04DB203A21FA02F00021704721FADB
:1002A00002F3D040C2F12002914008431946704742
:1002B000064C074D06E0E06840F0010394E80700B3
:1002C00098471034AC42F6D3FFF762FF2C200008A9
:1002D0004C200008FEE7000003490020096848623E
:1002E000024909684862704764000020AC000020A1
:1002F000704772B6FEE70000044A1268526A028034
:1003000003480068406A08807047000064000020CD
:10031000AC00002070B5044600F00CF90546601CE6
:1003200002D004480078044400F004F9401BA042C5
:10033000FAD370BD000000202DE9F84FDFF8BCA112
:100340000022012503264FF00F090AF1040BAAF140
:10035000040E00BF0B6805FA02F42340A34270D1DB
:100360000F7907F00307012F01D0022F16D18768FC
:100370004FEA420806FA08FC27EA0C07D1F80CC03D
:100380000CFA08FC4CEA070CC0F808C04768A74301
:100390000C79C4F3001494403C4344600C79E4436A
:1003A000A4070AD0C4684FEA420C06FA0CF7BC4313
:1003B0008F6807FA0CF72743C7600C7904F0030431
:1003C000022C12D1D40800EB840CDCF82040570733
:1003D000FF0E09FA07F824EA0804D1F8108008FA99
:1003E00007F848EA0408CCF8208004684FEA420C79
:1003F00006FA0CF7BC430F7907F0030707FA0CF76E
:10040000274307604C6814F4403F70D03C4C276889
:1004100047F480472760246822F0030704F48044EF
:100420000094384C07EB040CDCF8084897074FEAB7
:10043000177809FA08F7BC43334FB84202D10027B6
:1004400024E054E0314FB84201D101271EE0304F83
:10045000B84201D1022719E02E4FB84201D103273B
:1004600014E02D4FB84201D104270FE02B4FB842C2
:1004700001D105270AE02A4FB84201D1062705E03D
:10048000284FB84201D1072700E0082707FA08F7EC
:100490002743CCF80878DAF800405746D1F804C072
:1004A0009C435FEACC2C00D51C433C60DBF8004049
:1004B0005F46D1F804C09C435FEA8C2C00D51C43F6
:1004C0003C60DEF800407746D1F804C09C435FEA08
:1004D0008C3C00D51C433C60084F083F3C68D1F879
:1004E00004C09C435FEACC3C00D51C433C60521CDA
:1004F000102AFFF42FAFBDE8F88F0000083C014040
:100500004438024000300140000002400004024034
:1005100000080240000C024000100240001402409B
:1005200000180240001C02400AB1816170470904B2
:10053000FBE70000014880687047000000000020D1
:1005400002488168027811448160704700000020F1
:100550000B4810B5016841F400710160016841F475
:1005600080610160016841F480710160032000F046
:100570006FF80F2000F006F800F024F8002010BDFE
:10058000003C024070B50D4D04464FF47A71287856
:10059000B1FBF0F00A490968B1FBF0F000F00CFB88
:1005A00048B9102C07D200222146501E00F030F826
:1005B00000206C6070BD012070BD000000000020B4
:1005C0000C0000200A4808B5016841F48041016030
:1005D000006800F4804000900548001F016841F069
:1005E00080510160006800F08050009008BD00005C
:1005F00044380240002809DB00F01F02012191402D
:100600004009800000F1E020C0F8001170470000B0
:10061000F0B40E4B1B680C46C3F30223C3F107056D
:10062000042D00D90425191D072901D2002300E05B
:10063000DB1E012606FA05F1491E214099409E4025
:10064000761E16403143F0BC01F0DABB0CED00E041
:10065000064900F0070208684FF6FF03184040EA19
:100660000220034A10430860704700000CED00E0D0
:100670000000FA052DE9F0470E46050065D0DFF8C9
:100680001481D8F80000F7B200F00700B04207D29A
:1006900088F80070D8F8000000F00700B04254D18C
:1006A00028683D4C810712D5400703D5206840F4E7
:1006B000E05020602878000703D5206840F46040AF
:1006C00020602068A96820F0F000084320602878A6
:1006D000C0072DD0304968680839012812D0022897
:1006E00013D0032811D00968890700292DDA216861
:1006F00021F0030101432160FFF71CFF814641F215
:10070000883A0EE009688903EFE709688901ECE798
:10071000FFF710FFA0EB0901514502D90320BDE806
:10072000F0872068696800F00C00B0EB810FEFD112
:10073000D8F80010404601F00701B14207D9077010
:10074000006800F00700B04201D00120E7E72878F8
:10075000400705D52068E96820F4E0500843206090
:100760002878000706D52068296920F4604040EA0F
:10077000C100206000F038F82168084AC1F3031175
:10078000515CC8400649086006480068FFF7FAFE59
:100790000020C4E7003C0240083802401420000852
:1007A0000C00002004000020044805490068096886
:1007B000044AC1F38221515CC84070470C000020FC
:1007C00008380240242000080448054900680968E8
:1007D000044AC1F34231515CC84070470C0000200C
:1007E0000838024024200008154810B5006810F0B1
:1007F0000C02144813D01449042A0FD0082A0ED131
:100800000F4C241F2268236802F03F025B0207D5C9
:100810002068C0F38810A0FB010106E0084610BD67
:100820002168C1F38811A1FB00010023FFF7C8FC78
:100830002168C1F30141491C4900B0FBF1F010BD32
:10084000083802400024F40040787D012DE9F84F7B
:1008500004006ED02078DFF84C93C007A9F104059E
:100860004AD009F104000168C1F38101012908D0CF
:100870000068C0F3810002280AD1D9F800004002C4
:1008800006D52868800337D560680028E1D033E0BA
:100890006068B0F5803F10D0B0F5A02F286810D068
:1008A00020F480302860286820F480202860606868
:1008B000A8B1FFF73FFE06460DE0286840F48030FF
:1008C000F4E740F480202860F7E700BFFFF732FE2E
:1008D000801B642873D828688003F7D50CE0FFF7E5
:1008E00029FE064605E000BFFFF724FE801B6428B2
:1008F000F0D828688003F7D42078DFF8AC8280072E
:100900004FF0000A3ED5A748001D016811F00C0FFA
:1009100008D00068C0F3810002280BD1D9F800008C
:10092000400207D42868800716D5E068012800D166
:1009300012E033E1E068B8B10120C8F80000FFF729
:10094000F9FD064605E000BFFFF7F4FD801B022815
:10095000C0D828688007F7D52868216920F0F800FA
:1009600040EAC10028600DE0C8F800A0FFF7E2FDF2
:10097000064604E0FFF7DEFD801B02281FD828682A
:100980008007F7D42078000722D5864F8748616911
:10099000703771B101210160FFF7CCFD064604E01C
:1009A000FFF7C8FD801B022809D838688007F7D5F3
:1009B0000EE0C0F800A0FFF7BDFD064605E082E0AE
:1009C000FFF7B8FD801B02287DD838688007F7D470
:1009D0002078400768D5DFF8CCB100270BF13C0B3D
:1009E000DBF80000C0000BD4DBF8001041F08051B0
:1009F000CBF80010DBF80000012700F080500090D9
:100A00006B4E3068C00510D4306840F480703060A0
:100A1000FFF790FD009005E0FFF78CFD0099401A6C
:100A2000022850D83068C005F6D55E4EA0686C36F6
:100A300001280FD00528306810D020F00100306068
:100A4000306820F004003060A068B8B1FFF772FD94
:100A500000900FE0306840F00100F4E740F004003F
:100A60003060F7E7FFF766FD0099411A41F28830E0
:100A7000814266D830688007F4D50EE0FFF75AFD52
:100A8000009007E0FFF756FD0099411A41F28830C7
:100A9000814256D830688007F4D42FB1DBF80010BB
:100AA00021F08051CBF80010A069C8B33D49091D61
:100AB0000968C1F3810102294AD00228504607D0B3
:100AC000C8F8600000E03CE0FFF734FD04463BE07E
:100AD0004746C8F86000FFF72DFD064605E000BF59
:100AE000FFF728FD801B02282BD828688001F7D447
:100AF000D4E907010843A16A2E4A490802EB0141E3
:100B0000626A41EA8211084394F82C1040EA0161BC
:100B1000C9F8001001203866FFF70CFD044606E016
:100B20003EE000BFFFF706FD001B022809D8286839
:100B30008001F7D534E000BFFFF7FCFC001B022862
:100B400002D90320BDE8F88F28688001F4D427E09B
:100B50000128F7D0D9F80000E26900F48001914241
:100B60001CD1226A00F03F01914217D147F6C071B3
:100B7000626A0140B1EB821F10D1A26A4FF0FF33CD
:100B800000F4403103EB5202B1EB024F06D194F86E
:100B90002C1000F07060B0EB016F01D00120D1E7A4
:100BA0000020CFE70438024000004742800E474251
:100BB000007000400000FFFF10B5401EB0F1807FC4
:100BC00001D3012010BD4FF0E02460610F216017B8
:100BD00001F016F90020A06107202061002010BD5F
:100BE0007047704770B590F83C20012A32D001243C
:100BF00080F83C40022280F83D2003685A689D68D6
:100C000022F070060A6832435A60134B02689A4217
:100C100014D0B2F1804F11D0104B9A420ED0104B2D
:100C20009A420BD00F4B9A4208D00F4B9A4205D0F4
:100C30000E4B9A4202D00E4B9A4204D1496825F0DD
:100C400080031943916080F83D40002180F83C10FA
:100C5000084670BD022070BD000001400004004045
:100C600000080040000C004000040140004001402A
:100C70000018004010B5040003D094F83D0010B1F6
:100C800007E0012010BD002084F83C00204600F061
:100C90001FF8022084F83D00211D206800F04CFE62
:100CA000012084F8460084F83E0084F83F0084F870
:100CB000400084F8410084F8420084F8430084F83E
:100CC000440084F8450084F83D00002010BD000079
:100CD00008B501681048B1F1804F14D00F4A914215
:100CE00019D1016841F0100101600068002200F094
:100CF0001000009011463620FFF78AFCBDE808403E
:100D00003620FFF777BC016841F0010101600068FF
:100D100000F00100009008BD403802400010004083
:100D200090F83D10012901D001207047022180F880
:100D30003D100168CA6842F00102CA6000681149AA
:100D4000884214D0B0F1804F11D00F4988420ED0A4
:100D50000E4988420BD00E49884208D00D4988427E
:100D600005D00D49884202D00C49884204D18168DF
:100D700001F00701062903D0016841F0010101607B
:100D800000207047000001400004004000080040BF
:100D9000000C0040000401400040014000180040E9
:100DA00070B5044690F83C000025012817D00126B4
:100DB00084F83C60022084F83D002068826822F0BC
:100DC000770222F47F4282600868502838D00DDC18
:100DD00020284FD005DC90B3102811D14AE0022022
:100DE00070BD302846D040280AD13BE060282FD083
:100DF00070280DD0B0F5805F03D0B0F5005F12D041
:100E0000012584F83D60002084F83C00284670BD30
:100E1000CB68D1E90121206800F003FE20688168D9
:100E200041F0770109E0CB68D1E90121206800F0A9
:100E3000F8FD2068816841F480418160E1E719E0B4
:100E4000CA684968206800F0C1FE5021206806E0A9
:100E5000CA684968206800F0CAFE6021206800F076
:100E6000EAFDCEE7CA684968206800F0AFFE40217D
:100E70002068F4E7226801461046F0E72DE9F041CA
:100E80000D46040003D094F83D0018B108E001209D
:100E9000BDE8F081002084F83C00204600F040F8D6
:100EA000022084F83D002068816844F207029143E3
:100EB0008160211D206800F03FFD226890689169E3
:100EC000166A2B68AF69034340F20330814341EA5D
:100ED0000721A868EF6908434FF6FC418843E96899
:100EE00040EA0720014328692F6A000140EA0730E1
:100EF000084369686D6926F0AA0646EA0515294384
:100F000093602268906154F8460B0162012004F856
:100F10001F09E0752076E0762077A0750020B7E7FE
:100F200030B587B0044614216846FFF781F921489F
:100F300024681F4D00221F4910380223AC4216D1ED
:100F40000C6844F002040C60096801F0020105918C
:100F5000016841F0010101600068694600F001008C
:100F60000590C0200090CDE90132134819E0134DDF
:100F7000AC421AD10C6844F004040C60096801F01A
:100F800004010591016841F00801016000686946AB
:100F900000F0080005904FF440500090CDE9013278
:100FA0000748CDE90323FFF7C7F907B030BD0000BC
:100FB00000040040403802400000024000080040A9
:100FC000000C024070B590F83E60044690F83F5027
:100FD00090F8423090F84320022021B104290ED02D
:100FE000012E1BD114E0012E18D1012B16D184F84B
:100FF0003E0084F8420001220021206820E0012DFB
:101000000CD1012A0AD184F83F0084F8430014E08F
:10101000012D03D1012B01D1012A01D0012070BD86
:1010200084F83E0084F83F0084F8420084F84300CE
:1010300001220021206800F0E7FC01220421206841
:1010400000F0E2FC2068016841F00101016000202D
:1010500070BD70472DE9F04104460068C668056917
:101060004FF00007A90713D5B10711D5F91E01618B
:1010700001202077206880698007204602D0FFF792
:10108000E8FF04E000F0A6F8204600F038F92777E2
:10109000680716D5700714D521686FF00400086141
:1010A000022020772068806910F4407F204602D01B
:1010B000FFF7CFFF04E000F08DF8204600F01FF9A5
:1010C0002777280715D5300713D521686FF008005A
:1010D0000861042020772068C0698007204602D07C
:1010E000FFF7B7FF04E000F075F8204600F007F9BD
:1010F0002777E80616D5F00614D521686FF01000A2
:101100000861082020772068C06910F4407F2046DD
:1011100002D0FFF79EFF04E000F05CF8204600F0EC
:10112000EEF82777E80708D0F00706D021686FF0BF
:1011300001000861204600F047F9280608D530066E
:1011400006D521686FF0800008612046FFF748FD52
:10115000680608D5700606D521686FF04000086162
:10116000204600F045F9A8060AD5B00608D5216842
:101170006FF0200008612046BDE8F041FFF731BD67
:10118000BDE8F08110B586B0044614216846FFF72B
:101190004FF82068B0F1804F15D10C48002102684B
:1011A00042F001020260006800F001000590032097
:1011B00000900220CDE901010120CDE9031069462C
:1011C0000348FFF7B9F806B010BD00003038024000
:1011D00000000240704770B5044690F83C000026BD
:1011E0000D4601280FD0012084F83C006AB1042A82
:1011F0001DD0082A2FD00C2A3FD00126002084F8C9
:101200003C00304670BD022070BD206800F01CFC20
:101210002068816941F0080181612068816921F0BD
:1012200004018161206881692A69114311E0206805
:1012300000F03AFC2068816941F400618161206816
:10124000816921F480618161206881692A6941EAAC
:1012500002218161D2E7206800F05CFC2068C1694E
:1012600041F00801C1612068C16921F00401C16138
:101270002068C1692A69114311E0206800F07EFCF2
:101280002068C16941F40061C1612068C16921F42D
:101290008061C1612068C1692A6941EA0221C16196
:1012A000ACE710B5040003D094F83D0010B107E09E
:1012B000012010BD002084F83C00204600F01EF8FC
:1012C000022084F83D00211D206800F035FB01203C
:1012D00084F8460084F83E0084F83F0084F840001B
:1012E00084F8410084F8420084F8430084F8440004
:1012F00084F8450084F83D00002010BD7047704719
:1013000010B50446022249B104290ED0082913D091
:1013100094F84100012816D0012010BD94F83E0039
:101320000128F9D184F83E200FE094F83F0001280D
:10133000F2D184F83F2008E094F840000128EBD176
:1013400084F8402001E084F841200122206800F068
:101350005BFB16492068164A884201D0904203D1AF
:10136000436C43F4004343642068884213D0B0F1D7
:10137000804F10D00F4988420DD00F4988420AD0C3
:101380000E49884207D0904205D00D49884202D0CC
:101390000C49884204D1816801F00701062903D075
:1013A000016841F001010160002010BD0000014012
:1013B000000401400004004000080040000C004010
:1013C0000040014000180040074900B5884209D19B
:1013D0000649881EFEF790FFFEF77EFF03490120B5
:1013E000091F087000BD0000F40000201400002058
:1013F000704770B5040004D094F84100002510B186
:1014000006E0012070BD84F84050204600F024F82A
:10141000242084F841002068C16821F40051C16093
:10142000204600F01DFC2068016921F49041016113
:101430002068416921F02A0141612068C16841F4B6
:101440000051C1606564202084F8410084F84200A6
:101450006563002070BD000010B586B004461421FD
:101460006846FEF7E5FE14492068884221D11348FA
:101470000021026842F010020260006800F01000D3
:1014800005900E481438026842F0010202600068BC
:1014900000F0010005904FF4C06000900220CDE9FB
:1014A0000101032003900720049069460448FEF7D9
:1014B00043FF06B010BD0000001001404438024058
:1014C000000002402DE9F843044690F84100984698
:1014D00016460D46202802D00220BDE8F88385B1CB
:1014E0007EB100206064212084F84100FFF722F8DB
:1014F000A6848146E684A0682027B0F5805F02D0EC
:1015000003E00120E9E7206910B12E4600250EE036
:1015100000260CE08021204600F028FCA8B9C6B1C6
:1015200016F8010B21684860E08C401EE084E08CD6
:101530004B464FF00002CDF800800028EAD14FF072
:101540004001204600F012FC40B184F841700320B5
:10155000C3E735F8020BC0F30800E3E784F84170F5
:101560000020BAE7FEE7000030B587B014216846D6
:10157000FEF75EFE11480024016841F001010160A0
:10158000016801F001010591016841F00801016065
:1015900000680B4D00F00800059022463C212846CB
:1015A000FEF7C2FF3C2000900120CDE9010469460E
:1015B00028460394FEF7C0FE07B030BD3038024025
:1015C0000000024010B58EB00024079408940994DE
:1015D0000A940B941C2168460C94FEF729FE2248BD
:1015E0004FF0804101600321C0E9011440F633014E
:1015F000C0E903148461FFF73DFB08B1FEF779FEF3
:101600004FF48050079007A91748FFF7C9FB08B1AE
:10161000FEF76FFE1448FFF744FE08B1FEF769FEBF
:101620000B940BA910480C94FFF7DCFA08B1FEF7F5
:1016300060FE6020CDE900040294002269460A4859
:101640000494FFF7C8FD08B1FEF753FE0422694673
:101650000548FFF7C0FD08B1FEF74BFE0248FFF753
:1016600091FD0EB010BD00001C00002010B58CB024
:1016700024216846FEF7DCFD00241648099414492D
:101680000A94C0E900144FF6FF71C0E902410461F9
:1016900084610120CDE90004CDE902040F21049109
:1016A000CDE90540CDE9074169460A48FFF7E6FB69
:1016B00008B1FEF71EFE099409A906480A94FFF72F
:1016C00091FA002801D0FEF714FE0CB010BD000006
:1016D000000400406400002010B58CB0242168464E
:1016E000FEF7A6FD00241648099414490A94C0E99F
:1016F00000144FF6FF71C0E90241046184610120CA
:101700000221CDE90001CDE902040F210491CDE9C8
:101710000540CDE9074169460948FFF7AFFB08B12D
:10172000FEF7E7FD099409A905480A94FFF75AFA5C
:10173000002801D0FEF7DDFD0CB010BD0008004010
:10174000AC0000201CB500240F4800940D49019402
:10175000016040F24731C0E9011440F2E731846191
:10176000C160FFF787FA08B1FEF7C3FD0094694630
:1017700005480194FFF736FA002801D0FEF7B9FDBD
:101780001CBD000000100040F40000200C4810B503
:101790000A4901604FF4E1314160002181600C226F
:1017A000C160C0E904128161C161FFF722FE002817
:1017B00003D0BDE81040FEF79CBD10BD00100140F5
:1017C0003C010020FEE7000070B50E4C0D460646B9
:1017D000002204212046FEF7A7FE01220821204610
:1017E000FEF7A2FE012210212046FEF79DFE0022F8
:1017F00020212046FEF798FE29463046BDE870407D
:1018000000F028B80000024010B500210B48FFF797
:1018100077FD04210948FFF773FD3C210848FFF7D5
:10182000D1FB3C210748FFF7CDFB0748FFF778FACB
:101830000021BDE81040084600F00CB81C00002054
:1018400064000020AC000020F4000020FEE7704798
:101850007047000040F6340210FB02F06422B0FB37
:10186000F2F080B240F6340311FB03F1B1FBF2F168
:10187000034A89B213685863106881637047000097
:101880001C000020FEF75CBE30B593B030216846E6
:10189000FEF7CEFC14210CA8FEF7CAFC1D4800255B
:1018A000016841F080510160006800F080501190A3
:1018B0001948016841F4804101600068022400F485
:1018C0008040119001200390102004900094069411
:1018D0000820CDE90750A820CDE9090404200B9089
:1018E0006846FEF7B3FF08B172B6FEE70CA90F20F9
:1018F00081E831004FF4A0500F904FF480501090C9
:1019000005210CA8FEF7B6FE002801D072B6FEE74E
:1019100013B030BD403802400070004002480168FA
:1019200041F470010160704788ED00E00148FFF765
:1019300091BB0000F4000020F0B50268274B284D51
:10194000284E294F294C4FF0804C984209D06045D1
:1019500007D0A84205D0B04203D0B84201D0A0427F
:1019600004D122F0700E4A6842EA0E0298421BD05F
:10197000604519D0A84217D0B04215D0B84213D054
:10198000A04211D01A4DA8420ED01A4DA8420BD039
:10199000194DA84208D0194DA84205D0184DA842AB
:1019A00002D0184DA84203D122F44075CA682A43D8
:1019B0004D6922F080022A438D68C5620D688562F8
:1019C000984201D0A04201D109690163016841F048
:1019D00004010160012141610260F0BD000001408D
:1019E0000004004000080040000C004000040140DA
:1019F0000040014000440140004801400018004000
:101A0000001C00400020004010B501F01F03012120
:101A1000046A99408C430462016A9A40114301624E
:101A200010BD10B5846842EA032224F47F440A43BF
:101A30002243826010BD826822F070020A4342F0A5
:101A40000701816070470000F0B5036A026A22F066
:101A50000102026242688469124E24F073050C6828
:101A60002C4323F002058B682B430D4DA84201D077
:101A7000B04205D123F00807CB683B4323F00403B1
:101A8000A84201D0B04205D14D6922F440721543FD
:101A90008A692A4342608461496841630362F0BDF8
:101AA0000000014000040140F0B5026A036A23F01F
:101AB00010030362436884690D6824F4E64444EA31
:101AC00005248D6822F0200242EA05120F4D104EC7
:101AD000A84201D0B04206D1CF6822F0800242EA8B
:101AE000071222F04002A84201D0B04207D14D694E
:101AF00023F4406343EA85038D6943EA8503436029
:101B00008461496881630262F0BD00000000014009
:101B100000040140F0B5026A036A23F48073036293
:101B20004368C46922F4007224F073050C68124EF5
:101B30002C438D6842EA05220E4DA84201D0B042E6
:101B400006D1CF6822F4006242EA072222F48062C2
:101B5000A84201D0B04207D14D6923F4405343EA73
:101B600005138D6943EA05134360C4614968C16385
:101B70000262F0BD000001400004014030B5046A7B
:101B8000026A22F4805202624268C3690D6823F43B
:101B9000E64343EA05238D6824F4005444EA0534FF
:101BA000084DA84202D0084DA84204D14D6922F444
:101BB000804242EA85124260C3614968016404625E
:101BC00030BD0000000001400004014010B5036A70
:101BD000046A24F001040462846924F0F00444EAF5
:101BE000021423F00A020A438461026210BD10B598
:101BF000036A046A24F010040462846923F0A003D9
:101C000024F4704444EA023243EA01118261016221
:101C100010BD01680C3151E8002F22F4907241E8A8
:101C20000023002BF5D10168143151E8002F22F078
:101C3000010241E80023002BF5D1016B012909D1F4
:101C400001680C3151E8002F22F0100241E8002316
:101C5000002BF5D1202180F842100021016370474C
:101C600070B5044600680169E26821F440511143EF
:101C700001612169A068E269084361691143084371
:101C80002168CA6849F20C639A430243CA6020681B
:101C90004169A26921F440711143416131492068D1
:101CA000884202D03049884202D1FEF78DFD01E022
:101CB000FEF77AFDE2690023192164253226B2F588
:101CC000004F626828D0A0FB0101930F9200FEF73D
:101CD00077FA0146B0FBF5F06FF01802504301EBC4
:101CE000800006EB0010B0FBF5F000F0F002B1FB55
:101CF000F5F002EB0012B1FBF5F06FF0180358435A
:101D000001EB800006EB0010B0FBF5F000F00F00D7
:101D100021681044886070BDA0FB010192185B41EE
:101D2000FEF74EFA0146B0FBF5F00201B1FBF5F00B
:101D30006FF01803584301EB800006EBC000B0FBC6
:101D4000F5F000F0F80002EB4002B1FBF5F058436B
:101D500001EB800006EBC000B0FBF5F000F00700DF
:101D6000D6E7000000100140001401402DE9F843BF
:101D7000984617460D460446089E24E0701C22D063
:101D8000FEF7D8FBA0EB0800B0421AD8CEB120680D
:101D9000C168490717D5802D15D0402D13D0016893
:101DA000C94309070FD40168002540680090204608
:101DB000FFF72FFF0820606484F840500120BDE841
:101DC000F8830320FBE72068006835EA000004D0B0
:101DD0000020B842D2D00020F1E70120F9E7FEE769
:101DE0000FB4054B10B503A9044A029800F028F877
:101DF00010BC5DF814FB0000951F000818000020BF
:101E00000907090E002804DB00F1E02080F8001427
:101E1000704700F00F0000F1E02080F8141D7047BB
:101E200002E008C8121F08C1002AFAD170477047A3
:101E3000002001E001C1121F002AFBD17047000001
:101E40002DE9FF4F89B09B460446002506E0252872
:101E50000BD05A460B999047641C6D1C20780028C3
:101E6000F5D10DB02846BDE8F08F0027B846012215
:101E7000474900E0074314F8013F203B02FA03F012
:101E80000842F7D120782E2819D114F8010F47F015
:101E900004072A280ED06FF02F022078A0F130011D
:101EA00009290CD808EB880102EB410100EB01087D
:101EB000641CF2E70A98641C50F8048B0A9020789E
:101EC0000028CED0642808D0692806D075281ED0F6
:101ED0005A460B9990476D1C58E00A994FF00A0931
:101EE00001C90A91002802DA40422D2102E0390599
:101EF00004D52B218DF82010012103E0F90704D02F
:101F00002021F7E78A4608AE0DE00021FAE70A999A
:101F10004FF00A0901C90A91F7E74946FEF793F91C
:101F2000303106F8011D0028F7D1ADEB060000F1B5
:101F30002009780701D44FF00108C84502DDA8EB5D
:101F4000090000E000208046002706E008A85A4665
:101F5000C05D0B9990476D1C7F1C5745F6DB04E074
:101F600030205A460B9990476D1CB8F10001A8F13A
:101F70000108F5DC05E016F8010B5A460B9990476D
:101F80006D1CB9F10001A9F10109F4DC641C65E7DD
:101F90000928010013B54FF4FA730122694602487B
:101FA000FFF790FA00981CBD3C010020FEF7D0FA24
:101FB000FFF76AFCFFF7D8FAFFF704FBFFF756FBC1
:101FC000FFF78AFBFFF7E2FBFFF7BCFBFFF71CFC08
:101FD00040F6B830FEF79EF91E210846FFF7F4FBE5
:101FE000074C084E084F002520780028FCD02570AB
:101FF000B6F90020B7F9001004A0FFF7F1FEF3E7EF
:1020000010000020140000201200002025642C2560
:10201000640D0A000000000000000000010203043B
:102020000607080900000000010203044C20000814
:10203000000000201C000000201E0008682000088E
:102040001C0000206C050000301E0008010000008C
:1020500010000000000000000024F4000000000058
:08206000000000000000000078
:040000050800018965
:00000001FF
